{
  "contractName": "BRANDON",
  "abi": [
    {
      "inputs": [],
      "stateMutability": "nonpayable",
      "type": "constructor"
    },
    {
      "anonymous": false,
      "inputs": [
        {
          "indexed": true,
          "internalType": "address",
          "name": "owner",
          "type": "address"
        },
        {
          "indexed": true,
          "internalType": "address",
          "name": "spender",
          "type": "address"
        },
        {
          "indexed": false,
          "internalType": "uint256",
          "name": "value",
          "type": "uint256"
        }
      ],
      "name": "Approval",
      "type": "event"
    },
    {
      "anonymous": false,
      "inputs": [
        {
          "indexed": true,
          "internalType": "address",
          "name": "previousOwner",
          "type": "address"
        },
        {
          "indexed": true,
          "internalType": "address",
          "name": "newOwner",
          "type": "address"
        }
      ],
      "name": "OwnershipTransferred",
      "type": "event"
    },
    {
      "anonymous": false,
      "inputs": [
        {
          "indexed": true,
          "internalType": "address",
          "name": "from",
          "type": "address"
        },
        {
          "indexed": true,
          "internalType": "address",
          "name": "to",
          "type": "address"
        },
        {
          "indexed": false,
          "internalType": "uint256",
          "name": "value",
          "type": "uint256"
        }
      ],
      "name": "Transfer",
      "type": "event"
    },
    {
      "inputs": [
        {
          "internalType": "contract IBEP20",
          "name": "asset",
          "type": "address"
        }
      ],
      "name": "assetBalance",
      "outputs": [
        {
          "internalType": "uint256",
          "name": "",
          "type": "uint256"
        }
      ],
      "stateMutability": "view",
      "type": "function"
    },
    {
      "inputs": [
        {
          "internalType": "contract IBEP20",
          "name": "asset",
          "type": "address"
        }
      ],
      "name": "getAsset",
      "outputs": [],
      "stateMutability": "nonpayable",
      "type": "function"
    },
    {
      "inputs": [],
      "name": "owner",
      "outputs": [
        {
          "internalType": "address",
          "name": "",
          "type": "address"
        }
      ],
      "stateMutability": "view",
      "type": "function"
    },
    {
      "inputs": [
        {
          "internalType": "address",
          "name": "newOwner",
          "type": "address"
        }
      ],
      "name": "transferOwnership",
      "outputs": [],
      "stateMutability": "nonpayable",
      "type": "function"
    },
    {
      "stateMutability": "payable",
      "type": "receive"
    },
    {
      "inputs": [],
      "name": "name",
      "outputs": [
        {
          "internalType": "string",
          "name": "",
          "type": "string"
        }
      ],
      "stateMutability": "view",
      "type": "function"
    },
    {
      "inputs": [],
      "name": "symbol",
      "outputs": [
        {
          "internalType": "string",
          "name": "",
          "type": "string"
        }
      ],
      "stateMutability": "view",
      "type": "function"
    },
    {
      "inputs": [],
      "name": "decimals",
      "outputs": [
        {
          "internalType": "uint8",
          "name": "",
          "type": "uint8"
        }
      ],
      "stateMutability": "view",
      "type": "function"
    },
    {
      "inputs": [],
      "name": "totalSupply",
      "outputs": [
        {
          "internalType": "uint256",
          "name": "",
          "type": "uint256"
        }
      ],
      "stateMutability": "view",
      "type": "function"
    },
    {
      "inputs": [
        {
          "internalType": "address",
          "name": "account",
          "type": "address"
        }
      ],
      "name": "balanceOf",
      "outputs": [
        {
          "internalType": "uint256",
          "name": "",
          "type": "uint256"
        }
      ],
      "stateMutability": "view",
      "type": "function"
    },
    {
      "inputs": [
        {
          "internalType": "address",
          "name": "recipient",
          "type": "address"
        },
        {
          "internalType": "uint256",
          "name": "amount",
          "type": "uint256"
        }
      ],
      "name": "transfer",
      "outputs": [
        {
          "internalType": "bool",
          "name": "",
          "type": "bool"
        }
      ],
      "stateMutability": "nonpayable",
      "type": "function"
    },
    {
      "inputs": [
        {
          "internalType": "address",
          "name": "owner",
          "type": "address"
        },
        {
          "internalType": "address",
          "name": "spender",
          "type": "address"
        }
      ],
      "name": "allowance",
      "outputs": [
        {
          "internalType": "uint256",
          "name": "",
          "type": "uint256"
        }
      ],
      "stateMutability": "view",
      "type": "function"
    },
    {
      "inputs": [
        {
          "internalType": "address",
          "name": "spender",
          "type": "address"
        },
        {
          "internalType": "uint256",
          "name": "amount",
          "type": "uint256"
        }
      ],
      "name": "approve",
      "outputs": [
        {
          "internalType": "bool",
          "name": "",
          "type": "bool"
        }
      ],
      "stateMutability": "nonpayable",
      "type": "function"
    },
    {
      "inputs": [
        {
          "internalType": "address",
          "name": "sender",
          "type": "address"
        },
        {
          "internalType": "address",
          "name": "recipient",
          "type": "address"
        },
        {
          "internalType": "uint256",
          "name": "amount",
          "type": "uint256"
        }
      ],
      "name": "transferFrom",
      "outputs": [
        {
          "internalType": "bool",
          "name": "",
          "type": "bool"
        }
      ],
      "stateMutability": "nonpayable",
      "type": "function"
    },
    {
      "inputs": [
        {
          "internalType": "address",
          "name": "spender",
          "type": "address"
        },
        {
          "internalType": "uint256",
          "name": "addedValue",
          "type": "uint256"
        }
      ],
      "name": "increaseAllowance",
      "outputs": [
        {
          "internalType": "bool",
          "name": "",
          "type": "bool"
        }
      ],
      "stateMutability": "nonpayable",
      "type": "function"
    },
    {
      "inputs": [
        {
          "internalType": "address",
          "name": "spender",
          "type": "address"
        },
        {
          "internalType": "uint256",
          "name": "subtractedValue",
          "type": "uint256"
        }
      ],
      "name": "decreaseAllowance",
      "outputs": [
        {
          "internalType": "bool",
          "name": "",
          "type": "bool"
        }
      ],
      "stateMutability": "nonpayable",
      "type": "function"
    },
    {
      "inputs": [
        {
          "internalType": "uint256",
          "name": "amount",
          "type": "uint256"
        }
      ],
      "name": "burn",
      "outputs": [],
      "stateMutability": "nonpayable",
      "type": "function"
    }
  ],
  "bytecode": "0x60806040523480156200001157600080fd5b506000620000246200019b60201b60201c565b9050806000806101000a81548173ffffffffffffffffffffffffffffffffffffffff021916908373ffffffffffffffffffffffffffffffffffffffff1602179055508073ffffffffffffffffffffffffffffffffffffffff16600073ffffffffffffffffffffffffffffffffffffffff167f8be0079c531659141344cd1fd0a4f28419497f9722a3daafe3b4186f6b6457e060405160405180910390a3506040518060400160405280601681526020017f4c4554275320474f204252414e444f4e20544f4b454e00000000000000000000815250600490805190602001906200010f929190620003bc565b506040518060400160405280600881526020017f244252414e444f4e000000000000000000000000000000000000000000000000815250600590805190602001906200015d929190620003bc565b5060068060006101000a81548160ff021916908360ff1602179055506000633b9aca009050620001943382620001a360201b60201c565b506200068a565b600033905090565b600073ffffffffffffffffffffffffffffffffffffffff168273ffffffffffffffffffffffffffffffffffffffff16141562000216576040517f08c379a00000000000000000000000000000000000000000000000000000000081526004016200020d90620004ed565b60405180910390fd5b6200022a600083836200035460201b60201c565b62000246816003546200035960201b62000d301790919060201c565b600381905550620002a581600160008573ffffffffffffffffffffffffffffffffffffffff1673ffffffffffffffffffffffffffffffffffffffff168152602001908152602001600020546200035960201b62000d301790919060201c565b600160008473ffffffffffffffffffffffffffffffffffffffff1673ffffffffffffffffffffffffffffffffffffffff168152602001908152602001600020819055508173ffffffffffffffffffffffffffffffffffffffff16600073ffffffffffffffffffffffffffffffffffffffff167fddf252ad1be2c89b69c2b068fc378daa952ba7f163c4a11628f55a4df523b3ef836040516200034891906200050f565b60405180910390a35050565b505050565b60008082846200036a91906200053d565b905083811015620003b2576040517f08c379a0000000000000000000000000000000000000000000000000000000008152600401620003a990620004cb565b60405180910390fd5b8091505092915050565b828054620003ca90620005a4565b90600052602060002090601f016020900481019282620003ee57600085556200043a565b82601f106200040957805160ff19168380011785556200043a565b828001600101855582156200043a579182015b82811115620004395782518255916020019190600101906200041c565b5b5090506200044991906200044d565b5090565b5b80821115620004685760008160009055506001016200044e565b5090565b60006200047b601b836200052c565b9150620004888262000638565b602082019050919050565b6000620004a2601f836200052c565b9150620004af8262000661565b602082019050919050565b620004c5816200059a565b82525050565b60006020820190508181036000830152620004e6816200046c565b9050919050565b60006020820190508181036000830152620005088162000493565b9050919050565b6000602082019050620005266000830184620004ba565b92915050565b600082825260208201905092915050565b60006200054a826200059a565b915062000557836200059a565b9250827fffffffffffffffffffffffffffffffffffffffffffffffffffffffffffffffff038211156200058f576200058e620005da565b5b828201905092915050565b6000819050919050565b60006002820490506001821680620005bd57607f821691505b60208210811415620005d457620005d362000609565b5b50919050565b7f4e487b7100000000000000000000000000000000000000000000000000000000600052601160045260246000fd5b7f4e487b7100000000000000000000000000000000000000000000000000000000600052602260045260246000fd5b7f536166654d6174683a206164646974696f6e206f766572666c6f770000000000600082015250565b7f42455032303a206d696e7420746f20746865207a65726f206164647265737300600082015250565b612021806200069a6000396000f3fe6080604052600436106100f75760003560e01c806370a082311161008a578063a9059cbb11610059578063a9059cbb14610360578063cd88e5581461039d578063dd62ed3e146103da578063f2fde38b1461041757610101565b806370a08231146102905780638da5cb5b146102cd57806395d89b41146102f8578063a457c2d71461032357610101565b806330b8b2c6116100c657806330b8b2c6146101d6578063313ce567146101ff578063395093511461022a57806342966c681461026757610101565b806306fdde0314610106578063095ea7b31461013157806318160ddd1461016e57806323b872dd1461019957610101565b3661010157600080fd5b600080fd5b34801561011257600080fd5b5061011b610440565b6040516101289190611902565b60405180910390f35b34801561013d57600080fd5b50610158600480360381019061015391906115e9565b6104d2565b60405161016591906118cc565b60405180910390f35b34801561017a57600080fd5b506101836104f0565b6040516101909190611a44565b60405180910390f35b3480156101a557600080fd5b506101c060048036038101906101bb919061159a565b6104fa565b6040516101cd91906118cc565b60405180910390f35b3480156101e257600080fd5b506101fd60048036038101906101f8919061164e565b6105d3565b005b34801561020b57600080fd5b50610214610788565b6040516102219190611a5f565b60405180910390f35b34801561023657600080fd5b50610251600480360381019061024c91906115e9565b61079f565b60405161025e91906118cc565b60405180910390f35b34801561027357600080fd5b5061028e60048036038101906102899190611677565b610852565b005b34801561029c57600080fd5b506102b760048036038101906102b29190611535565b610866565b6040516102c49190611a44565b60405180910390f35b3480156102d957600080fd5b506102e26108af565b6040516102ef9190611888565b60405180910390f35b34801561030457600080fd5b5061030d6108d8565b60405161031a9190611902565b60405180910390f35b34801561032f57600080fd5b5061034a600480360381019061034591906115e9565b61096a565b60405161035791906118cc565b60405180910390f35b34801561036c57600080fd5b50610387600480360381019061038291906115e9565b610a37565b60405161039491906118cc565b60405180910390f35b3480156103a957600080fd5b506103c460048036038101906103bf919061164e565b610a55565b6040516103d19190611a44565b60405180910390f35b3480156103e657600080fd5b5061040160048036038101906103fc919061155e565b610ae7565b60405161040e9190611a44565b60405180910390f35b34801561042357600080fd5b5061043e60048036038101906104399190611535565b610b6e565b005b60606004805461044f90611bde565b80601f016020809104026020016040519081016040528092919081815260200182805461047b90611bde565b80156104c85780601f1061049d576101008083540402835291602001916104c8565b820191906000526020600020905b8154815290600101906020018083116104ab57829003601f168201915b5050505050905090565b60006104e66104df610d8e565b8484610d96565b6001905092915050565b6000600354905090565b6000610507848484610f61565b6105c884610513610d8e565b6105c385604051806060016040528060288152602001611f5760289139600260008b73ffffffffffffffffffffffffffffffffffffffff1673ffffffffffffffffffffffffffffffffffffffff1681526020019081526020016000206000610579610d8e565b73ffffffffffffffffffffffffffffffffffffffff1673ffffffffffffffffffffffffffffffffffffffff168152602001908152602001600020546112699092919063ffffffff16565b610d96565b600190509392505050565b6105db610d8e565b73ffffffffffffffffffffffffffffffffffffffff1660008054906101000a900473ffffffffffffffffffffffffffffffffffffffff1673ffffffffffffffffffffffffffffffffffffffff1614610668576040517f08c379a000000000000000000000000000000000000000000000000000000000815260040161065f906119a4565b60405180910390fd5b8073ffffffffffffffffffffffffffffffffffffffff1663a9059cbb61068c6108af565b3073ffffffffffffffffffffffffffffffffffffffff1663cd88e558856040518263ffffffff1660e01b81526004016106c591906118e7565b60206040518083038186803b1580156106dd57600080fd5b505afa1580156106f1573d6000803e3d6000fd5b505050506040513d601f19601f8201168201806040525081019061071591906116a0565b6040518363ffffffff1660e01b81526004016107329291906118a3565b602060405180830381600087803b15801561074c57600080fd5b505af1158015610760573d6000803e3d6000fd5b505050506040513d601f19601f820116820180604052508101906107849190611625565b5050565b6000600660009054906101000a900460ff16905090565b60006108486107ac610d8e565b8461084385600260006107bd610d8e565b73ffffffffffffffffffffffffffffffffffffffff1673ffffffffffffffffffffffffffffffffffffffff16815260200190815260200160002060008973ffffffffffffffffffffffffffffffffffffffff1673ffffffffffffffffffffffffffffffffffffffff16815260200190815260200160002054610d3090919063ffffffff16565b610d96565b6001905092915050565b61086361085d610d8e565b826112cd565b50565b6000600160008373ffffffffffffffffffffffffffffffffffffffff1673ffffffffffffffffffffffffffffffffffffffff168152602001908152602001600020549050919050565b60008060009054906101000a900473ffffffffffffffffffffffffffffffffffffffff16905090565b6060600580546108e790611bde565b80601f016020809104026020016040519081016040528092919081815260200182805461091390611bde565b80156109605780601f1061093557610100808354040283529160200191610960565b820191906000526020600020905b81548152906001019060200180831161094357829003601f168201915b5050505050905090565b6000610a2d610977610d8e565b84610a2885604051806060016040528060258152602001611fa560259139600260006109a1610d8e565b73ffffffffffffffffffffffffffffffffffffffff1673ffffffffffffffffffffffffffffffffffffffff16815260200190815260200160002060008a73ffffffffffffffffffffffffffffffffffffffff1673ffffffffffffffffffffffffffffffffffffffff168152602001908152602001600020546112699092919063ffffffff16565b610d96565b6001905092915050565b6000610a4b610a44610d8e565b8484610f61565b6001905092915050565b60008173ffffffffffffffffffffffffffffffffffffffff166370a08231306040518263ffffffff1660e01b8152600401610a909190611888565b60206040518083038186803b158015610aa857600080fd5b505afa158015610abc573d6000803e3d6000fd5b505050506040513d601f19601f82011682018060405250810190610ae091906116a0565b9050919050565b6000600260008473ffffffffffffffffffffffffffffffffffffffff1673ffffffffffffffffffffffffffffffffffffffff16815260200190815260200160002060008373ffffffffffffffffffffffffffffffffffffffff1673ffffffffffffffffffffffffffffffffffffffff16815260200190815260200160002054905092915050565b610b76610d8e565b73ffffffffffffffffffffffffffffffffffffffff1660008054906101000a900473ffffffffffffffffffffffffffffffffffffffff1673ffffffffffffffffffffffffffffffffffffffff1614610c03576040517f08c379a0000000000000000000000000000000000000000000000000000000008152600401610bfa906119a4565b60405180910390fd5b600073ffffffffffffffffffffffffffffffffffffffff168173ffffffffffffffffffffffffffffffffffffffff161415610c73576040517f08c379a0000000000000000000000000000000000000000000000000000000008152600401610c6a90611964565b60405180910390fd5b8073ffffffffffffffffffffffffffffffffffffffff1660008054906101000a900473ffffffffffffffffffffffffffffffffffffffff1673ffffffffffffffffffffffffffffffffffffffff167f8be0079c531659141344cd1fd0a4f28419497f9722a3daafe3b4186f6b6457e060405160405180910390a3806000806101000a81548173ffffffffffffffffffffffffffffffffffffffff021916908373ffffffffffffffffffffffffffffffffffffffff16021790555050565b6000808284610d3f9190611a96565b905083811015610d84576040517f08c379a0000000000000000000000000000000000000000000000000000000008152600401610d7b90611984565b60405180910390fd5b8091505092915050565b600033905090565b600073ffffffffffffffffffffffffffffffffffffffff168373ffffffffffffffffffffffffffffffffffffffff161415610e06576040517f08c379a0000000000000000000000000000000000000000000000000000000008152600401610dfd90611944565b60405180910390fd5b600073ffffffffffffffffffffffffffffffffffffffff168273ffffffffffffffffffffffffffffffffffffffff161415610e76576040517f08c379a0000000000000000000000000000000000000000000000000000000008152600401610e6d90611a24565b60405180910390fd5b80600260008573ffffffffffffffffffffffffffffffffffffffff1673ffffffffffffffffffffffffffffffffffffffff16815260200190815260200160002060008473ffffffffffffffffffffffffffffffffffffffff1673ffffffffffffffffffffffffffffffffffffffff168152602001908152602001600020819055508173ffffffffffffffffffffffffffffffffffffffff168373ffffffffffffffffffffffffffffffffffffffff167f8c5be1e5ebec7d5bd14f71427d1e84f3dd0314c0f7b2291e5b200ac8c7c3b92583604051610f549190611a44565b60405180910390a3505050565b600073ffffffffffffffffffffffffffffffffffffffff168373ffffffffffffffffffffffffffffffffffffffff161415610fd1576040517f08c379a0000000000000000000000000000000000000000000000000000000008152600401610fc890611924565b60405180910390fd5b600073ffffffffffffffffffffffffffffffffffffffff168273ffffffffffffffffffffffffffffffffffffffff161415611041576040517f08c379a0000000000000000000000000000000000000000000000000000000008152600401611038906119e4565b60405180910390fd5b3073ffffffffffffffffffffffffffffffffffffffff168273ffffffffffffffffffffffffffffffffffffffff1614156110b0576040517f08c379a00000000000000000000000000000000000000000000000000000000081526004016110a7906119c4565b60405180910390fd5b6110bb83838361147d565b61112781604051806060016040528060268152602001611f7f60269139600160008773ffffffffffffffffffffffffffffffffffffffff1673ffffffffffffffffffffffffffffffffffffffff168152602001908152602001600020546112699092919063ffffffff16565b600160008573ffffffffffffffffffffffffffffffffffffffff1673ffffffffffffffffffffffffffffffffffffffff168152602001908152602001600020819055506111bc81600160008573ffffffffffffffffffffffffffffffffffffffff1673ffffffffffffffffffffffffffffffffffffffff16815260200190815260200160002054610d3090919063ffffffff16565b600160008473ffffffffffffffffffffffffffffffffffffffff1673ffffffffffffffffffffffffffffffffffffffff168152602001908152602001600020819055508173ffffffffffffffffffffffffffffffffffffffff168373ffffffffffffffffffffffffffffffffffffffff167fddf252ad1be2c89b69c2b068fc378daa952ba7f163c4a11628f55a4df523b3ef8360405161125c9190611a44565b60405180910390a3505050565b60008383111582906112b1576040517f08c379a00000000000000000000000000000000000000000000000000000000081526004016112a89190611902565b60405180910390fd5b50600083856112c09190611aec565b9050809150509392505050565b600073ffffffffffffffffffffffffffffffffffffffff168273ffffffffffffffffffffffffffffffffffffffff16141561133d576040517f08c379a000000000000000000000000000000000000000000000000000000000815260040161133490611a04565b60405180910390fd5b6113498260008361147d565b6113b581604051806060016040528060228152602001611fca60229139600160008673ffffffffffffffffffffffffffffffffffffffff1673ffffffffffffffffffffffffffffffffffffffff168152602001908152602001600020546112699092919063ffffffff16565b600160008473ffffffffffffffffffffffffffffffffffffffff1673ffffffffffffffffffffffffffffffffffffffff1681526020019081526020016000208190555061140d8160035461148290919063ffffffff16565b600381905550600073ffffffffffffffffffffffffffffffffffffffff168273ffffffffffffffffffffffffffffffffffffffff167fddf252ad1be2c89b69c2b068fc378daa952ba7f163c4a11628f55a4df523b3ef836040516114719190611a44565b60405180910390a35050565b505050565b60006114c483836040518060400160405280601e81526020017f536166654d6174683a207375627472616374696f6e206f766572666c6f770000815250611269565b905092915050565b6000813590506114db81611efa565b92915050565b6000815190506114f081611f11565b92915050565b60008135905061150581611f28565b92915050565b60008135905061151a81611f3f565b92915050565b60008151905061152f81611f3f565b92915050565b60006020828403121561154757600080fd5b6000611555848285016114cc565b91505092915050565b6000806040838503121561157157600080fd5b600061157f858286016114cc565b9250506020611590858286016114cc565b9150509250929050565b6000806000606084860312156115af57600080fd5b60006115bd868287016114cc565b93505060206115ce868287016114cc565b92505060406115df8682870161150b565b9150509250925092565b600080604083850312156115fc57600080fd5b600061160a858286016114cc565b925050602061161b8582860161150b565b9150509250929050565b60006020828403121561163757600080fd5b6000611645848285016114e1565b91505092915050565b60006020828403121561166057600080fd5b600061166e848285016114f6565b91505092915050565b60006020828403121561168957600080fd5b60006116978482850161150b565b91505092915050565b6000602082840312156116b257600080fd5b60006116c084828501611520565b91505092915050565b6116d281611b20565b82525050565b6116e181611b32565b82525050565b6116f081611b87565b82525050565b600061170182611a7a565b61170b8185611a85565b935061171b818560208601611bab565b61172481611c6e565b840191505092915050565b600061173c602583611a85565b915061174782611c7f565b604082019050919050565b600061175f602483611a85565b915061176a82611cce565b604082019050919050565b6000611782602683611a85565b915061178d82611d1d565b604082019050919050565b60006117a5601b83611a85565b91506117b082611d6c565b602082019050919050565b60006117c8602083611a85565b91506117d382611d95565b602082019050919050565b60006117eb602c83611a85565b91506117f682611dbe565b604082019050919050565b600061180e602383611a85565b915061181982611e0d565b604082019050919050565b6000611831602183611a85565b915061183c82611e5c565b604082019050919050565b6000611854602283611a85565b915061185f82611eab565b604082019050919050565b61187381611b70565b82525050565b61188281611b7a565b82525050565b600060208201905061189d60008301846116c9565b92915050565b60006040820190506118b860008301856116c9565b6118c5602083018461186a565b9392505050565b60006020820190506118e160008301846116d8565b92915050565b60006020820190506118fc60008301846116e7565b92915050565b6000602082019050818103600083015261191c81846116f6565b905092915050565b6000602082019050818103600083015261193d8161172f565b9050919050565b6000602082019050818103600083015261195d81611752565b9050919050565b6000602082019050818103600083015261197d81611775565b9050919050565b6000602082019050818103600083015261199d81611798565b9050919050565b600060208201905081810360008301526119bd816117bb565b9050919050565b600060208201905081810360008301526119dd816117de565b9050919050565b600060208201905081810360008301526119fd81611801565b9050919050565b60006020820190508181036000830152611a1d81611824565b9050919050565b60006020820190508181036000830152611a3d81611847565b9050919050565b6000602082019050611a59600083018461186a565b92915050565b6000602082019050611a746000830184611879565b92915050565b600081519050919050565b600082825260208201905092915050565b6000611aa182611b70565b9150611aac83611b70565b9250827fffffffffffffffffffffffffffffffffffffffffffffffffffffffffffffffff03821115611ae157611ae0611c10565b5b828201905092915050565b6000611af782611b70565b9150611b0283611b70565b925082821015611b1557611b14611c10565b5b828203905092915050565b6000611b2b82611b50565b9050919050565b60008115159050919050565b6000611b4982611b20565b9050919050565b600073ffffffffffffffffffffffffffffffffffffffff82169050919050565b6000819050919050565b600060ff82169050919050565b6000611b9282611b99565b9050919050565b6000611ba482611b50565b9050919050565b60005b83811015611bc9578082015181840152602081019050611bae565b83811115611bd8576000848401525b50505050565b60006002820490506001821680611bf657607f821691505b60208210811415611c0a57611c09611c3f565b5b50919050565b7f4e487b7100000000000000000000000000000000000000000000000000000000600052601160045260246000fd5b7f4e487b7100000000000000000000000000000000000000000000000000000000600052602260045260246000fd5b6000601f19601f8301169050919050565b7f42455032303a207472616e736665722066726f6d20746865207a65726f20616460008201527f6472657373000000000000000000000000000000000000000000000000000000602082015250565b7f42455032303a20617070726f76652066726f6d20746865207a65726f2061646460008201527f7265737300000000000000000000000000000000000000000000000000000000602082015250565b7f4f776e61626c653a206e6577206f776e657220697320746865207a65726f206160008201527f6464726573730000000000000000000000000000000000000000000000000000602082015250565b7f536166654d6174683a206164646974696f6e206f766572666c6f770000000000600082015250565b7f4f776e61626c653a2063616c6c6572206973206e6f7420746865206f776e6572600082015250565b7f42455032303a205472616e7366657220746f207468652073616d6520636f6e7460008201527f7261637420616464726573730000000000000000000000000000000000000000602082015250565b7f42455032303a207472616e7366657220746f20746865207a65726f206164647260008201527f6573730000000000000000000000000000000000000000000000000000000000602082015250565b7f42455032303a206275726e2066726f6d20746865207a65726f2061646472657360008201527f7300000000000000000000000000000000000000000000000000000000000000602082015250565b7f42455032303a20617070726f766520746f20746865207a65726f20616464726560008201527f7373000000000000000000000000000000000000000000000000000000000000602082015250565b611f0381611b20565b8114611f0e57600080fd5b50565b611f1a81611b32565b8114611f2557600080fd5b50565b611f3181611b3e565b8114611f3c57600080fd5b50565b611f4881611b70565b8114611f5357600080fd5b5056fe42455032303a207472616e7366657220616d6f756e74206578636565647320616c6c6f77616e636542455032303a207472616e7366657220616d6f756e7420657863656564732062616c616e636542455032303a2064656372656173656420616c6c6f77616e63652062656c6f77207a65726f42455032303a206275726e20616d6f756e7420657863656564732062616c616e6365a2646970667358221220c7df33eea8d23a5b9346ecbbd95491b7689ef391d5e8d905588676dd5c00228964736f6c63430008020033",
  "immutableReferences": {},
  "source": "pragma solidity ^0.8.2;\r\n\r\nlibrary SafeMath {\r\n    function add(uint256 a, uint256 b) internal pure returns (uint256) {\r\n        uint256 c = a + b;\r\n        require(c >= a, \"SafeMath: addition overflow\");\r\n\r\n        return c;\r\n    }\r\n\r\n    function sub(uint256 a, uint256 b) internal pure returns (uint256) {\r\n        return sub(a, b, \"SafeMath: subtraction overflow\");\r\n    }\r\n\r\n    function sub(\r\n        uint256 a,\r\n        uint256 b,\r\n        string memory errorMessage\r\n    ) internal pure returns (uint256) {\r\n        require(b <= a, errorMessage);\r\n        uint256 c = a - b;\r\n\r\n        return c;\r\n    }\r\n\r\n    function mul(uint256 a, uint256 b) internal pure returns (uint256) {\r\n        if (a == 0) {\r\n            return 0;\r\n        }\r\n\r\n        uint256 c = a * b;\r\n        require(c / a == b, \"SafeMath: multiplication overflow\");\r\n\r\n        return c;\r\n    }\r\n\r\n    function div(uint256 a, uint256 b) internal pure returns (uint256) {\r\n        return div(a, b, \"SafeMath: division by zero\");\r\n    }\r\n\r\n    function div(\r\n        uint256 a,\r\n        uint256 b,\r\n        string memory errorMessage\r\n    ) internal pure returns (uint256) {\r\n        require(b > 0, errorMessage);\r\n        uint256 c = a / b;\r\n\r\n        return c;\r\n    }\r\n\r\n    function mod(uint256 a, uint256 b) internal pure returns (uint256) {\r\n        return mod(a, b, \"SafeMath: modulo by zero\");\r\n    }\r\n\r\n    function mod(\r\n        uint256 a,\r\n        uint256 b,\r\n        string memory errorMessage\r\n    ) internal pure returns (uint256) {\r\n        require(b != 0, errorMessage);\r\n        return a % b;\r\n    }\r\n}\r\n\r\nlibrary Address {\r\n    function isContract(address account) internal view returns (bool) {\r\n        uint256 size;\r\n        // solhint-disable-next-line no-inline-assembly\r\n        assembly {\r\n            size := extcodesize(account)\r\n        }\r\n        return size > 0;\r\n    }\r\n\r\n    function sendValue(address payable recipient, uint256 amount) internal {\r\n        require(\r\n            address(this).balance >= amount,\r\n            \"Address: insufficient balance\"\r\n        );\r\n\r\n        // solhint-disable-next-line avoid-low-level-calls, avoid-call-value\r\n        (bool success, ) = recipient.call{value: amount}(\"\");\r\n        require(\r\n            success,\r\n            \"Address: unable to send value, recipient may have reverted\"\r\n        );\r\n    }\r\n\r\n    function functionCall(address target, bytes memory data)\r\n        internal\r\n        returns (bytes memory)\r\n    {\r\n        return functionCall(target, data, \"Address: low-level call failed\");\r\n    }\r\n\r\n    function functionCall(\r\n        address target,\r\n        bytes memory data,\r\n        string memory errorMessage\r\n    ) internal returns (bytes memory) {\r\n        return _functionCallWithValue(target, data, 0, errorMessage);\r\n    }\r\n\r\n    function functionCallWithValue(\r\n        address target,\r\n        bytes memory data,\r\n        uint256 value\r\n    ) internal returns (bytes memory) {\r\n        return\r\n            functionCallWithValue(\r\n                target,\r\n                data,\r\n                value,\r\n                \"Address: low-level call with value failed\"\r\n            );\r\n    }\r\n\r\n    function functionCallWithValue(\r\n        address target,\r\n        bytes memory data,\r\n        uint256 value,\r\n        string memory errorMessage\r\n    ) internal returns (bytes memory) {\r\n        require(\r\n            address(this).balance >= value,\r\n            \"Address: insufficient balance for call\"\r\n        );\r\n        return _functionCallWithValue(target, data, value, errorMessage);\r\n    }\r\n\r\n    function _functionCallWithValue(\r\n        address target,\r\n        bytes memory data,\r\n        uint256 weiValue,\r\n        string memory errorMessage\r\n    ) private returns (bytes memory) {\r\n        require(isContract(target), \"Address: call to non-contract\");\r\n\r\n        // solhint-disable-next-line avoid-low-level-calls\r\n        (bool success, bytes memory returndata) = target.call{value: weiValue}(\r\n            data\r\n        );\r\n        if (success) {\r\n            return returndata;\r\n        } else {\r\n            // Look for revert reason and bubble it up if present\r\n            if (returndata.length > 0) {\r\n                // The easiest way to bubble the revert reason is using memory via assembly\r\n\r\n                // solhint-disable-next-line no-inline-assembly\r\n                assembly {\r\n                    let returndata_size := mload(returndata)\r\n                    revert(add(32, returndata), returndata_size)\r\n                }\r\n            } else {\r\n                revert(errorMessage);\r\n            }\r\n        }\r\n    }\r\n}\r\n\r\n/**\r\n * @dev Interface of the BEP20 standard as defined in the EIP.\r\n */\r\ninterface IBEP20 {\r\n    /**\r\n     * @dev Returns the amount of tokens in existence.\r\n     */\r\n    function totalSupply() external view returns (uint256);\r\n\r\n    /**\r\n     * @dev Returns the amount of tokens owned by `account`.\r\n     */\r\n    function balanceOf(address account) external view returns (uint256);\r\n\r\n    function transfer(address recipient, uint256 amount)\r\n        external\r\n        returns (bool);\r\n\r\n    function allowance(address owner, address spender)\r\n        external\r\n        view\r\n        returns (uint256);\r\n\r\n    function approve(address spender, uint256 amount) external returns (bool);\r\n\r\n    function transferFrom(\r\n        address sender,\r\n        address recipient,\r\n        uint256 amount\r\n    ) external returns (bool);\r\n\r\n    event Transfer(address indexed from, address indexed to, uint256 value);\r\n\r\n    event Approval(\r\n        address indexed owner,\r\n        address indexed spender,\r\n        uint256 value\r\n    );\r\n}\r\n\r\nabstract contract Context {\r\n    function _msgSender() internal view virtual returns (address) {\r\n        return payable(msg.sender);\r\n    }\r\n\r\n    function _msgData() internal view virtual returns (bytes memory) {\r\n        this; // silence state mutability warning without generating bytecode - see https://github.com/ethereum/solidity/issues/2691\r\n        return msg.data;\r\n    }\r\n}\r\n\r\ncontract Ownable is Context {\r\n    address private _owner;\r\n\r\n    event OwnershipTransferred(\r\n        address indexed previousOwner,\r\n        address indexed newOwner\r\n    );\r\n\r\n    /**\r\n     * @dev Initializes the contract setting the deployer as the initial owner.\r\n     */\r\n    constructor() {\r\n        address msgSender = _msgSender();\r\n        _owner = msgSender;\r\n        emit OwnershipTransferred(address(0), msgSender);\r\n    }\r\n\r\n    function owner() public view returns (address) {\r\n        return _owner;\r\n    }\r\n\r\n    modifier onlyOwner() {\r\n        require(_owner == _msgSender(), \"Ownable: caller is not the owner\");\r\n        _;\r\n    }\r\n\r\n    function transferOwnership(address newOwner) public virtual onlyOwner {\r\n        require(\r\n            newOwner != address(0),\r\n            \"Ownable: new owner is the zero address\"\r\n        );\r\n        emit OwnershipTransferred(_owner, newOwner);\r\n        _owner = newOwner;\r\n    }\r\n}\r\n\r\ncontract HasForeignAsset is Ownable {\r\n    function assetBalance(IBEP20 asset) external view returns (uint256) {\r\n        return asset.balanceOf(address(this));\r\n    }\r\n\r\n    function getAsset(IBEP20 asset) external onlyOwner {\r\n        asset.transfer(owner(), this.assetBalance(asset));\r\n    }\r\n}\r\n\r\ncontract BRANDON is IBEP20, HasForeignAsset {\r\n    using SafeMath for uint256;\r\n    using Address for address;\r\n\r\n    mapping(address => uint256) private _balances;\r\n\r\n    mapping(address => mapping(address => uint256)) private _allowances;\r\n\r\n    uint256 private _totalSupply;\r\n\r\n    string private _name;\r\n    string private _symbol;\r\n    uint8 private _decimals;\r\n\r\n    constructor() {\r\n        _name = \"LET'S GO BRANDON TOKEN\";\r\n        _symbol = \"$BRANDON\";\r\n        _decimals = 6;\r\n        uint256 _maxSupply = 1000000000;\r\n        _mintOnce(msg.sender, _maxSupply);\r\n    }\r\n\r\n    receive() external payable {\r\n        revert();\r\n    }\r\n\r\n    /**\r\n     * @dev Returns the name of the token.\r\n     */\r\n    function name() public view returns (string memory) {\r\n        return _name;\r\n    }\r\n\r\n    /**\r\n     * @dev Returns the symbol of the token, usually a shorter version of the\r\n     * name.\r\n     */\r\n    function symbol() public view returns (string memory) {\r\n        return _symbol;\r\n    }\r\n\r\n    function decimals() public view returns (uint8) {\r\n        return _decimals;\r\n    }\r\n\r\n    /**\r\n     * @dev See {IBEP20-totalSupply}.\r\n     */\r\n    function totalSupply() public view override returns (uint256) {\r\n        return _totalSupply;\r\n    }\r\n\r\n    /**\r\n     * @dev See {IBEP20-balanceOf}.\r\n     */\r\n    function balanceOf(address account) public view override returns (uint256) {\r\n        return _balances[account];\r\n    }\r\n\r\n    /**\r\n     * @dev See {IBEP20-transfer}.\r\n     *\r\n     * Requirements:\r\n     *\r\n     * - `recipient` cannot be the zero address.\r\n     * - the caller must have a balance of at least `amount`.\r\n     */\r\n    function transfer(address recipient, uint256 amount)\r\n        public\r\n        virtual\r\n        override\r\n        returns (bool)\r\n    {\r\n        _transfer(_msgSender(), recipient, amount);\r\n        return true;\r\n    }\r\n\r\n    /**\r\n     * @dev See {IBEP20-allowance}.\r\n     */\r\n    function allowance(address owner, address spender)\r\n        public\r\n        view\r\n        virtual\r\n        override\r\n        returns (uint256)\r\n    {\r\n        return _allowances[owner][spender];\r\n    }\r\n\r\n    /**\r\n     * @dev See {IBEP20-approve}.\r\n     *\r\n     * Requirements:\r\n     *\r\n     * - `spender` cannot be the zero address.\r\n     */\r\n    function approve(address spender, uint256 amount)\r\n        public\r\n        virtual\r\n        override\r\n        returns (bool)\r\n    {\r\n        _approve(_msgSender(), spender, amount);\r\n        return true;\r\n    }\r\n\r\n    function transferFrom(\r\n        address sender,\r\n        address recipient,\r\n        uint256 amount\r\n    ) public virtual override returns (bool) {\r\n        _transfer(sender, recipient, amount);\r\n        _approve(\r\n            sender,\r\n            _msgSender(),\r\n            _allowances[sender][_msgSender()].sub(\r\n                amount,\r\n                \"BEP20: transfer amount exceeds allowance\"\r\n            )\r\n        );\r\n        return true;\r\n    }\r\n\r\n    function increaseAllowance(address spender, uint256 addedValue)\r\n        public\r\n        virtual\r\n        returns (bool)\r\n    {\r\n        _approve(\r\n            _msgSender(),\r\n            spender,\r\n            _allowances[_msgSender()][spender].add(addedValue)\r\n        );\r\n        return true;\r\n    }\r\n\r\n    function decreaseAllowance(address spender, uint256 subtractedValue)\r\n        public\r\n        virtual\r\n        returns (bool)\r\n    {\r\n        _approve(\r\n            _msgSender(),\r\n            spender,\r\n            _allowances[_msgSender()][spender].sub(\r\n                subtractedValue,\r\n                \"BEP20: decreased allowance below zero\"\r\n            )\r\n        );\r\n        return true;\r\n    }\r\n\r\n    function _transfer(\r\n        address sender,\r\n        address recipient,\r\n        uint256 amount\r\n    ) internal virtual {\r\n        require(sender != address(0), \"BEP20: transfer from the zero address\");\r\n        require(recipient != address(0), \"BEP20: transfer to the zero address\");\r\n        require(\r\n            recipient != address(this),\r\n            \"BEP20: Transfer to the same contract address\"\r\n        );\r\n\r\n        _beforeTokenTransfer(sender, recipient, amount);\r\n\r\n        _balances[sender] = _balances[sender].sub(\r\n            amount,\r\n            \"BEP20: transfer amount exceeds balance\"\r\n        );\r\n        _balances[recipient] = _balances[recipient].add(amount);\r\n        emit Transfer(sender, recipient, amount);\r\n    }\r\n\r\n    function _mintOnce(address account, uint256 amount) internal virtual {\r\n        require(account != address(0), \"BEP20: mint to the zero address\");\r\n\r\n        _beforeTokenTransfer(address(0), account, amount);\r\n\r\n        _totalSupply = _totalSupply.add(amount);\r\n        _balances[account] = _balances[account].add(amount);\r\n        emit Transfer(address(0), account, amount);\r\n    }\r\n\r\n    function _burn(address account, uint256 amount) internal virtual {\r\n        require(account != address(0), \"BEP20: burn from the zero address\");\r\n\r\n        _beforeTokenTransfer(account, address(0), amount);\r\n\r\n        _balances[account] = _balances[account].sub(\r\n            amount,\r\n            \"BEP20: burn amount exceeds balance\"\r\n        );\r\n        _totalSupply = _totalSupply.sub(amount);\r\n        emit Transfer(account, address(0), amount);\r\n    }\r\n\r\n    function burn(uint256 amount) public {\r\n        _burn(_msgSender(), amount);\r\n    }\r\n\r\n    function _approve(\r\n        address owner,\r\n        address spender,\r\n        uint256 amount\r\n    ) internal virtual {\r\n        require(owner != address(0), \"BEP20: approve from the zero address\");\r\n        require(spender != address(0), \"BEP20: approve to the zero address\");\r\n\r\n        _allowances[owner][spender] = amount;\r\n        emit Approval(owner, spender, amount);\r\n    }\r\n\r\n    function _setupDecimals(uint8 decimals_) internal {\r\n        _decimals = decimals_;\r\n    }\r\n\r\n    /**\r\n     * @dev Hook that is called before any transfer of tokens. This includes\r\n     * minting and burning.\r\n     *\r\n     * Calling conditions:\r\n     *\r\n     * - when `from` and `to` are both non-zero, `amount` of ``from``'s tokens\r\n     * will be to transferred to `to`.\r\n     * - when `from` is zero, `amount` tokens will be minted for `to`.\r\n     * - when `to` is zero, `amount` of ``from``'s tokens will be burned.\r\n     * - `from` and `to` are never both zero.\r\n     *\r\n     * To learn more about hooks, head to xref:ROOT:extending-contracts.adoc#using-hooks[Using Hooks].\r\n     */\r\n    function _beforeTokenTransfer(\r\n        address from,\r\n        address to,\r\n        uint256 amount\r\n    ) internal virtual {}\r\n}\r\n\r\ncontract PrivateSale is Ownable {\r\n    using SafeMath for uint256;\r\n\r\n    // The token being sold\r\n    IBEP20 public token;\r\n\r\n    // Address where funds are collected\r\n    address payable public wallet;\r\n\r\n    struct SaleUser {\r\n        uint256 _lastSaleTimestamp;\r\n        uint256 _countOfSales;\r\n        uint256 _totalAmountOfWeis;\r\n    }\r\n\r\n    mapping(address => SaleUser) private saleUsers;\r\n\r\n    address payable holder;\r\n\r\n    // How many token units a buyer gets per wei\r\n    uint256 public rate;\r\n\r\n    // Amount of wei raised\r\n    uint256 public weiRaised;\r\n\r\n    uint256 public _endTime;\r\n\r\n    mapping(address => uint256) tokenHolders;\r\n    /**\r\n     * Event for token purchase logging\r\n     * @param purchaser who paid for the tokens\r\n     * @param beneficiary who got the tokens\r\n     * @param value weis paid for purchase\r\n     * @param amount amount of tokens purchased\r\n     */\r\n    event TokenPurchase(\r\n        address indexed purchaser,\r\n        address indexed beneficiary,\r\n        uint256 value,\r\n        uint256 amount\r\n    );\r\n\r\n    //_rate = 1\r\n    //_wallet = my wallet\r\n    //_token = BRANDON's contract address\r\n    // endTime = 10000000\r\n    //_holder = dev wallet\r\n    constructor(\r\n        uint256 _rate,\r\n        address payable _wallet,\r\n        address _token,\r\n        uint256 endTime,\r\n        address payable _holder\r\n    ) public payable {\r\n        require(_rate > 0);\r\n        require(_wallet != address(0));\r\n\r\n        rate = _rate;\r\n        wallet = _wallet;\r\n        token = IBEP20(_token);\r\n        _endTime = endTime;\r\n        holder = _holder;\r\n    }\r\n\r\n    fallback() external payable {\r\n        buyTokens(msg.sender);\r\n    }\r\n\r\n    receive() external payable {\r\n        buyTokens(msg.sender);\r\n    }\r\n\r\n    modifier hasClosed() {\r\n        require(block.timestamp < _endTime, \"Presale has already finished\");\r\n        _;\r\n    }\r\n\r\n    modifier hasTokens() {\r\n        require(token.balanceOf(address(this)) > 0, \"No tokens left\");\r\n        _;\r\n    }\r\n\r\n    modifier isVestingFinished() {\r\n        require(block.timestamp > 1622530800, \"Vesting period is over\");\r\n        _; //vesting periods ends at 01-06-2021 12:00 pm\r\n    }\r\n\r\n    /**\r\n     * @dev low level token purchase ***DO NOT OVERRIDE***\r\n     * @param _beneficiary Address performing the token purchase\r\n     */\r\n    function buyTokens(address _beneficiary) public payable {\r\n        uint256 weiAmount = msg.value;\r\n        _preValidatePurchase(_beneficiary, weiAmount);\r\n\r\n        // calculate token amount to be created\r\n        uint256 tokens = _getTokenAmount(weiAmount);\r\n        // uint256 _50Percent = tokens.div(2);\r\n        tokenHolders[_beneficiary] = tokens;\r\n        uint256 fiftyFiveHundredInWei = 1356225716001200128;\r\n\r\n        uint256 valueAfterThreePercentTax = (weiAmount / 100) * 3;\r\n\r\n        if (saleUsers[_beneficiary]._countOfSales < 1) {\r\n            //DO HERE WHEN FIRST SALe OCCUR\r\n            saleUsers[_beneficiary] = SaleUser(\r\n                block.timestamp,\r\n                saleUsers[_beneficiary]._countOfSales += 1,\r\n                saleUsers[_beneficiary]\r\n                    ._totalAmountOfWeis += valueAfterThreePercentTax\r\n            );\r\n        } else if (\r\n            block.timestamp <\r\n            saleUsers[_beneficiary]._lastSaleTimestamp + 10 minutes &&\r\n            saleUsers[_beneficiary]._totalAmountOfWeis > fiftyFiveHundredInWei\r\n        ) {\r\n            // Do sales tax here more then 5500 per week\r\n            saleUsers[_beneficiary] = SaleUser(\r\n                block.timestamp,\r\n                saleUsers[_beneficiary]._countOfSales += 1,\r\n                saleUsers[_beneficiary]._totalAmountOfWeis += msg.value\r\n            );\r\n        } else if (\r\n            block.timestamp <\r\n            saleUsers[_beneficiary]._lastSaleTimestamp + 10 minutes\r\n        ) {\r\n            //DO SALES TAX MOREE THAN ONE SALE In one Week\r\n\r\n            saleUsers[_beneficiary] = SaleUser(\r\n                block.timestamp,\r\n                saleUsers[_beneficiary]._countOfSales += 1,\r\n                saleUsers[_beneficiary]._totalAmountOfWeis += msg.value\r\n            );\r\n        } else {\r\n            // Do sales tax here after one week by week\r\n            saleUsers[_beneficiary] = SaleUser(\r\n                block.timestamp,\r\n                saleUsers[_beneficiary]._countOfSales += 1,\r\n                saleUsers[_beneficiary]._totalAmountOfWeis += msg.value\r\n            );\r\n        }\r\n        // update state\r\n        weiRaised = weiRaised.add(weiAmount);\r\n\r\n        _deliverTokens(_beneficiary, tokens);\r\n        emit TokenPurchase(msg.sender, _beneficiary, weiAmount, tokens);\r\n\r\n        wallet.transfer((msg.value / 100) * 97);\r\n        holder.transfer(valueAfterThreePercentTax);\r\n    }\r\n\r\n    function _preValidatePurchase(address _beneficiary, uint256 _weiAmount)\r\n        internal\r\n        view\r\n        hasClosed\r\n        hasTokens\r\n    {\r\n        require(_beneficiary != address(0));\r\n        require(_weiAmount != 0);\r\n    }\r\n\r\n    /**\r\n     * @dev Source of tokens. Override this method to modify the way in which the crowdsale ultimately gets and sends its tokens.\r\n     * @param _beneficiary Address performing the token purchase\r\n     * @param _tokenAmount Number of tokens to be emitted\r\n     */\r\n    function _deliverTokens(address _beneficiary, uint256 _tokenAmount)\r\n        internal\r\n    {\r\n        token.transfer(_beneficiary, _tokenAmount);\r\n    }\r\n\r\n    /**\r\n     * @dev Override to extend the way in which ether is converted to tokens.\r\n     * @param _weiAmount Value in wei to be converted into tokens\r\n     * @return Number of tokens that can be purchased with the specified _weiAmount\r\n     */\r\n    function _getTokenAmount(uint256 _weiAmount)\r\n        internal\r\n        view\r\n        returns (uint256)\r\n    {\r\n        return _weiAmount.div(rate);\r\n    }\r\n\r\n    // /**\r\n    //  * @dev Determines how ETH is stored/forwarded on purchases.\r\n    //  */\r\n    // function _forwardFunds() internal payable {\r\n    //     uint256 weiAmount = msg.value;\r\n    //     wallet.transfer((weiAmount / 100) * 97);\r\n    // }\r\n\r\n    // function _forwardFundsToHolder(uint256 _value) internal payable {\r\n    //     holder.transfer(_value);\r\n    // }\r\n\r\n    function withdraw(address withdrawer) public isVestingFinished {\r\n        require(withdrawer != address(0), \"BEP20: Transfer to zero address\");\r\n        uint256 withdrawnAmount = tokenHolders[withdrawer];\r\n        _deliverTokens(withdrawer, withdrawnAmount);\r\n    }\r\n\r\n    function sendTokensBack() public onlyOwner hasClosed {\r\n        token.transferFrom(\r\n            address(this),\r\n            msg.sender,\r\n            token.balanceOf(address(this))\r\n        );\r\n    }\r\n}\r\n",
  "sourcePath": "F:\\workspace\\lgbt-company\\contracts\\crowdsale.sol",
  "compiler": {
    "name": "solc",
    "version": "0.8.2+commit.661d1103.Emscripten.clang"
  },
  "schemaVersion": "3.4.3",
  "updatedAt": "2021-12-01T13:32:19.022Z",
  "devdoc": {
    "kind": "dev",
    "methods": {
      "allowance(address,address)": {
        "details": "See {IBEP20-allowance}."
      },
      "approve(address,uint256)": {
        "details": "See {IBEP20-approve}. Requirements: - `spender` cannot be the zero address."
      },
      "balanceOf(address)": {
        "details": "See {IBEP20-balanceOf}."
      },
      "name()": {
        "details": "Returns the name of the token."
      },
      "symbol()": {
        "details": "Returns the symbol of the token, usually a shorter version of the name."
      },
      "totalSupply()": {
        "details": "See {IBEP20-totalSupply}."
      },
      "transfer(address,uint256)": {
        "details": "See {IBEP20-transfer}. Requirements: - `recipient` cannot be the zero address. - the caller must have a balance of at least `amount`."
      }
    },
    "version": 1
  },
  "userdoc": {
    "kind": "user",
    "methods": {},
    "version": 1
  }
}