{
  "contractName": "PrivateSale",
  "abi": [
    {
      "inputs": [
        {
          "internalType": "uint256",
          "name": "_rate",
          "type": "uint256"
        },
        {
          "internalType": "address payable",
          "name": "_wallet",
          "type": "address"
        },
        {
          "internalType": "address",
          "name": "_token",
          "type": "address"
        },
        {
          "internalType": "uint256",
          "name": "endTime",
          "type": "uint256"
        },
        {
          "internalType": "address payable",
          "name": "_holder",
          "type": "address"
        }
      ],
      "stateMutability": "payable",
      "type": "constructor",
      "payable": true
    },
    {
      "anonymous": false,
      "inputs": [
        {
          "indexed": true,
          "internalType": "address",
          "name": "previousOwner",
          "type": "address"
        },
        {
          "indexed": true,
          "internalType": "address",
          "name": "newOwner",
          "type": "address"
        }
      ],
      "name": "OwnershipTransferred",
      "type": "event"
    },
    {
      "anonymous": false,
      "inputs": [
        {
          "indexed": true,
          "internalType": "address",
          "name": "purchaser",
          "type": "address"
        },
        {
          "indexed": true,
          "internalType": "address",
          "name": "beneficiary",
          "type": "address"
        },
        {
          "indexed": false,
          "internalType": "uint256",
          "name": "value",
          "type": "uint256"
        },
        {
          "indexed": false,
          "internalType": "uint256",
          "name": "amount",
          "type": "uint256"
        }
      ],
      "name": "TokenPurchase",
      "type": "event"
    },
    {
      "stateMutability": "payable",
      "type": "fallback",
      "payable": true
    },
    {
      "inputs": [],
      "name": "_endTime",
      "outputs": [
        {
          "internalType": "uint256",
          "name": "",
          "type": "uint256"
        }
      ],
      "stateMutability": "view",
      "type": "function",
      "constant": true
    },
    {
      "inputs": [],
      "name": "owner",
      "outputs": [
        {
          "internalType": "address",
          "name": "",
          "type": "address"
        }
      ],
      "stateMutability": "view",
      "type": "function",
      "constant": true
    },
    {
      "inputs": [],
      "name": "rate",
      "outputs": [
        {
          "internalType": "uint256",
          "name": "",
          "type": "uint256"
        }
      ],
      "stateMutability": "view",
      "type": "function",
      "constant": true
    },
    {
      "inputs": [],
      "name": "token",
      "outputs": [
        {
          "internalType": "contract IBEP20",
          "name": "",
          "type": "address"
        }
      ],
      "stateMutability": "view",
      "type": "function",
      "constant": true
    },
    {
      "inputs": [
        {
          "internalType": "address",
          "name": "newOwner",
          "type": "address"
        }
      ],
      "name": "transferOwnership",
      "outputs": [],
      "stateMutability": "nonpayable",
      "type": "function"
    },
    {
      "inputs": [],
      "name": "wallet",
      "outputs": [
        {
          "internalType": "address payable",
          "name": "",
          "type": "address"
        }
      ],
      "stateMutability": "view",
      "type": "function",
      "constant": true
    },
    {
      "inputs": [],
      "name": "weiRaised",
      "outputs": [
        {
          "internalType": "uint256",
          "name": "",
          "type": "uint256"
        }
      ],
      "stateMutability": "view",
      "type": "function",
      "constant": true
    },
    {
      "stateMutability": "payable",
      "type": "receive",
      "payable": true
    },
    {
      "inputs": [
        {
          "internalType": "address",
          "name": "_beneficiary",
          "type": "address"
        }
      ],
      "name": "buyTokens",
      "outputs": [],
      "stateMutability": "payable",
      "type": "function",
      "payable": true
    },
    {
      "inputs": [
        {
          "internalType": "address",
          "name": "withdrawer",
          "type": "address"
        }
      ],
      "name": "withdraw",
      "outputs": [],
      "stateMutability": "nonpayable",
      "type": "function"
    },
    {
      "inputs": [],
      "name": "sendTokensBack",
      "outputs": [],
      "stateMutability": "nonpayable",
      "type": "function"
    }
  ],
  "bytecode": "0x608060405260405162001e9d38038062001e9d83398181016040528101906200002991906200024b565b60006200003b620001fe60201b60201c565b9050806000806101000a81548173ffffffffffffffffffffffffffffffffffffffff021916908373ffffffffffffffffffffffffffffffffffffffff1602179055508073ffffffffffffffffffffffffffffffffffffffff16600073ffffffffffffffffffffffffffffffffffffffff167f8be0079c531659141344cd1fd0a4f28419497f9722a3daafe3b4186f6b6457e060405160405180910390a35060008511620000e757600080fd5b600073ffffffffffffffffffffffffffffffffffffffff168473ffffffffffffffffffffffffffffffffffffffff1614156200012257600080fd5b8460058190555083600260006101000a81548173ffffffffffffffffffffffffffffffffffffffff021916908373ffffffffffffffffffffffffffffffffffffffff16021790555082600160006101000a81548173ffffffffffffffffffffffffffffffffffffffff021916908373ffffffffffffffffffffffffffffffffffffffff1602179055508160078190555080600460006101000a81548173ffffffffffffffffffffffffffffffffffffffff021916908373ffffffffffffffffffffffffffffffffffffffff16021790555050505050506200036d565b600033905090565b60008151905062000217816200031f565b92915050565b6000815190506200022e8162000339565b92915050565b600081519050620002458162000353565b92915050565b600080600080600060a086880312156200026457600080fd5b6000620002748882890162000234565b955050602062000287888289016200021d565b94505060406200029a8882890162000206565b9350506060620002ad8882890162000234565b9250506080620002c0888289016200021d565b9150509295509295909350565b6000620002da82620002f5565b9050919050565b6000620002ee82620002f5565b9050919050565b600073ffffffffffffffffffffffffffffffffffffffff82169050919050565b6000819050919050565b6200032a81620002cd565b81146200033657600080fd5b50565b6200034481620002e1565b81146200035057600080fd5b50565b6200035e8162000315565b81146200036a57600080fd5b50565b611b20806200037d6000396000f3fe6080604052600436106100955760003560e01c80638da5cb5b116100595780638da5cb5b14610185578063e097e7b9146101b0578063ec8ac4d8146101c7578063f2fde38b146101e3578063fc0c546a1461020c576100a5565b80632c4e722e146100b05780634042b66f146100db57806340d489581461010657806351cff8d914610131578063521eb2731461015a576100a5565b366100a5576100a333610237565b005b6100ae33610237565b005b3480156100bc57600080fd5b506100c5610a3e565b6040516100d291906116ff565b60405180910390f35b3480156100e757600080fd5b506100f0610a44565b6040516100fd91906116ff565b60405180910390f35b34801561011257600080fd5b5061011b610a4a565b60405161012891906116ff565b60405180910390f35b34801561013d57600080fd5b5061015860048036038101906101539190611367565b610a50565b005b34801561016657600080fd5b5061016f610b58565b60405161017c9190611567565b60405180910390f35b34801561019157600080fd5b5061019a610b7e565b6040516101a7919061154c565b60405180910390f35b3480156101bc57600080fd5b506101c5610ba7565b005b6101e160048036038101906101dc9190611367565b610237565b005b3480156101ef57600080fd5b5061020a60048036038101906102059190611367565b610dde565b005b34801561021857600080fd5b50610221610fa0565b60405161022e91906115e2565b60405180910390f35b60003490506102468282610fc6565b600061025182611143565b905080600860008573ffffffffffffffffffffffffffffffffffffffff1673ffffffffffffffffffffffffffffffffffffffff1681526020019081526020016000208190555060006712d2481a658058009050600060036064856102b591906117b5565b6102bf91906117e6565b90506001600360008773ffffffffffffffffffffffffffffffffffffffff1673ffffffffffffffffffffffffffffffffffffffff16815260200190815260200160002060010154101561043b5760405180606001604052804281526020016001600360008973ffffffffffffffffffffffffffffffffffffffff1673ffffffffffffffffffffffffffffffffffffffff1681526020019081526020016000206001016000828254610370919061175f565b925050819055815260200182600360008973ffffffffffffffffffffffffffffffffffffffff1673ffffffffffffffffffffffffffffffffffffffff16815260200190815260200160002060020160008282546103cd919061175f565b925050819055815250600360008773ffffffffffffffffffffffffffffffffffffffff1673ffffffffffffffffffffffffffffffffffffffff1681526020019081526020016000206000820151816000015560208201518160010155604082015181600201559050506108c1565b610258600360008773ffffffffffffffffffffffffffffffffffffffff1673ffffffffffffffffffffffffffffffffffffffff1681526020019081526020016000206000015461048b919061175f565b421080156104da575081600360008773ffffffffffffffffffffffffffffffffffffffff1673ffffffffffffffffffffffffffffffffffffffff16815260200190815260200160002060020154115b1561060e5760405180606001604052804281526020016001600360008973ffffffffffffffffffffffffffffffffffffffff1673ffffffffffffffffffffffffffffffffffffffff1681526020019081526020016000206001016000828254610543919061175f565b925050819055815260200134600360008973ffffffffffffffffffffffffffffffffffffffff1673ffffffffffffffffffffffffffffffffffffffff16815260200190815260200160002060020160008282546105a0919061175f565b925050819055815250600360008773ffffffffffffffffffffffffffffffffffffffff1673ffffffffffffffffffffffffffffffffffffffff1681526020019081526020016000206000820151816000015560208201518160010155604082015181600201559050506108c0565b610258600360008773ffffffffffffffffffffffffffffffffffffffff1673ffffffffffffffffffffffffffffffffffffffff1681526020019081526020016000206000015461065e919061175f565b4210156107945760405180606001604052804281526020016001600360008973ffffffffffffffffffffffffffffffffffffffff1673ffffffffffffffffffffffffffffffffffffffff16815260200190815260200160002060010160008282546106c9919061175f565b925050819055815260200134600360008973ffffffffffffffffffffffffffffffffffffffff1673ffffffffffffffffffffffffffffffffffffffff1681526020019081526020016000206002016000828254610726919061175f565b925050819055815250600360008773ffffffffffffffffffffffffffffffffffffffff1673ffffffffffffffffffffffffffffffffffffffff1681526020019081526020016000206000820151816000015560208201518160010155604082015181600201559050506108bf565b60405180606001604052804281526020016001600360008973ffffffffffffffffffffffffffffffffffffffff1673ffffffffffffffffffffffffffffffffffffffff16815260200190815260200160002060010160008282546107f8919061175f565b925050819055815260200134600360008973ffffffffffffffffffffffffffffffffffffffff1673ffffffffffffffffffffffffffffffffffffffff1681526020019081526020016000206002016000828254610855919061175f565b925050819055815250600360008773ffffffffffffffffffffffffffffffffffffffff1673ffffffffffffffffffffffffffffffffffffffff1681526020019081526020016000206000820151816000015560208201518160010155604082015181600201559050505b5b5b6108d68460065461116190919063ffffffff16565b6006819055506108e685846111bf565b8473ffffffffffffffffffffffffffffffffffffffff163373ffffffffffffffffffffffffffffffffffffffff167f623b3804fa71d67900d064613da8f94b9617215ee90799290593e1745087ad18868660405161094592919061171a565b60405180910390a3600260009054906101000a900473ffffffffffffffffffffffffffffffffffffffff1673ffffffffffffffffffffffffffffffffffffffff166108fc606160643461099891906117b5565b6109a291906117e6565b9081150290604051600060405180830381858888f193505050501580156109cd573d6000803e3d6000fd5b50600460009054906101000a900473ffffffffffffffffffffffffffffffffffffffff1673ffffffffffffffffffffffffffffffffffffffff166108fc829081150290604051600060405180830381858888f19350505050158015610a36573d6000803e3d6000fd5b505050505050565b60055481565b60065481565b60075481565b6360b5daf04211610a96576040517f08c379a0000000000000000000000000000000000000000000000000000000008152600401610a8d9061163f565b60405180910390fd5b600073ffffffffffffffffffffffffffffffffffffffff168173ffffffffffffffffffffffffffffffffffffffff161415610b06576040517f08c379a0000000000000000000000000000000000000000000000000000000008152600401610afd906116df565b60405180910390fd5b6000600860008373ffffffffffffffffffffffffffffffffffffffff1673ffffffffffffffffffffffffffffffffffffffff168152602001908152602001600020549050610b5482826111bf565b5050565b600260009054906101000a900473ffffffffffffffffffffffffffffffffffffffff1681565b60008060009054906101000a900473ffffffffffffffffffffffffffffffffffffffff16905090565b610baf611273565b73ffffffffffffffffffffffffffffffffffffffff1660008054906101000a900473ffffffffffffffffffffffffffffffffffffffff1673ffffffffffffffffffffffffffffffffffffffff1614610c3c576040517f08c379a0000000000000000000000000000000000000000000000000000000008152600401610c33906116bf565b60405180910390fd5b6007544210610c80576040517f08c379a0000000000000000000000000000000000000000000000000000000008152600401610c779061167f565b60405180910390fd5b600160009054906101000a900473ffffffffffffffffffffffffffffffffffffffff1673ffffffffffffffffffffffffffffffffffffffff166323b872dd3033600160009054906101000a900473ffffffffffffffffffffffffffffffffffffffff1673ffffffffffffffffffffffffffffffffffffffff166370a08231306040518263ffffffff1660e01b8152600401610d1b919061154c565b60206040518083038186803b158015610d3357600080fd5b505afa158015610d47573d6000803e3d6000fd5b505050506040513d601f19601f82011682018060405250810190610d6b91906113b9565b6040518463ffffffff1660e01b8152600401610d8993929190611582565b602060405180830381600087803b158015610da357600080fd5b505af1158015610db7573d6000803e3d6000fd5b505050506040513d601f19601f82011682018060405250810190610ddb9190611390565b50565b610de6611273565b73ffffffffffffffffffffffffffffffffffffffff1660008054906101000a900473ffffffffffffffffffffffffffffffffffffffff1673ffffffffffffffffffffffffffffffffffffffff1614610e73576040517f08c379a0000000000000000000000000000000000000000000000000000000008152600401610e6a906116bf565b60405180910390fd5b600073ffffffffffffffffffffffffffffffffffffffff168173ffffffffffffffffffffffffffffffffffffffff161415610ee3576040517f08c379a0000000000000000000000000000000000000000000000000000000008152600401610eda9061165f565b60405180910390fd5b8073ffffffffffffffffffffffffffffffffffffffff1660008054906101000a900473ffffffffffffffffffffffffffffffffffffffff1673ffffffffffffffffffffffffffffffffffffffff167f8be0079c531659141344cd1fd0a4f28419497f9722a3daafe3b4186f6b6457e060405160405180910390a3806000806101000a81548173ffffffffffffffffffffffffffffffffffffffff021916908373ffffffffffffffffffffffffffffffffffffffff16021790555050565b600160009054906101000a900473ffffffffffffffffffffffffffffffffffffffff1681565b600754421061100a576040517f08c379a00000000000000000000000000000000000000000000000000000000081526004016110019061167f565b60405180910390fd5b6000600160009054906101000a900473ffffffffffffffffffffffffffffffffffffffff1673ffffffffffffffffffffffffffffffffffffffff166370a08231306040518263ffffffff1660e01b8152600401611067919061154c565b60206040518083038186803b15801561107f57600080fd5b505afa158015611093573d6000803e3d6000fd5b505050506040513d601f19601f820116820180604052508101906110b791906113b9565b116110f7576040517f08c379a00000000000000000000000000000000000000000000000000000000081526004016110ee9061161f565b60405180910390fd5b600073ffffffffffffffffffffffffffffffffffffffff168273ffffffffffffffffffffffffffffffffffffffff16141561113157600080fd5b600081141561113f57600080fd5b5050565b600061115a6005548361127b90919063ffffffff16565b9050919050565b6000808284611170919061175f565b9050838110156111b5576040517f08c379a00000000000000000000000000000000000000000000000000000000081526004016111ac9061169f565b60405180910390fd5b8091505092915050565b600160009054906101000a900473ffffffffffffffffffffffffffffffffffffffff1673ffffffffffffffffffffffffffffffffffffffff1663a9059cbb83836040518363ffffffff1660e01b815260040161121c9291906115b9565b602060405180830381600087803b15801561123657600080fd5b505af115801561124a573d6000803e3d6000fd5b505050506040513d601f19601f8201168201806040525081019061126e9190611390565b505050565b600033905090565b60006112bd83836040518060400160405280601a81526020017f536166654d6174683a206469766973696f6e206279207a65726f0000000000008152506112c5565b905092915050565b6000808311829061130c576040517f08c379a000000000000000000000000000000000000000000000000000000000815260040161130391906115fd565b60405180910390fd5b506000838561131b91906117b5565b9050809150509392505050565b60008135905061133781611aa5565b92915050565b60008151905061134c81611abc565b92915050565b60008151905061136181611ad3565b92915050565b60006020828403121561137957600080fd5b600061138784828501611328565b91505092915050565b6000602082840312156113a257600080fd5b60006113b08482850161133d565b91505092915050565b6000602082840312156113cb57600080fd5b60006113d984828501611352565b91505092915050565b6113eb81611852565b82525050565b6113fa81611840565b82525050565b6114098161189a565b82525050565b600061141a82611743565b611424818561174e565b93506114348185602086016118be565b61143d8161194f565b840191505092915050565b6000611455600e8361174e565b915061146082611960565b602082019050919050565b600061147860168361174e565b915061148382611989565b602082019050919050565b600061149b60268361174e565b91506114a6826119b2565b604082019050919050565b60006114be601c8361174e565b91506114c982611a01565b602082019050919050565b60006114e1601b8361174e565b91506114ec82611a2a565b602082019050919050565b600061150460208361174e565b915061150f82611a53565b602082019050919050565b6000611527601f8361174e565b915061153282611a7c565b602082019050919050565b61154681611890565b82525050565b600060208201905061156160008301846113f1565b92915050565b600060208201905061157c60008301846113e2565b92915050565b600060608201905061159760008301866113f1565b6115a460208301856113f1565b6115b1604083018461153d565b949350505050565b60006040820190506115ce60008301856113f1565b6115db602083018461153d565b9392505050565b60006020820190506115f76000830184611400565b92915050565b60006020820190508181036000830152611617818461140f565b905092915050565b6000602082019050818103600083015261163881611448565b9050919050565b600060208201905081810360008301526116588161146b565b9050919050565b600060208201905081810360008301526116788161148e565b9050919050565b60006020820190508181036000830152611698816114b1565b9050919050565b600060208201905081810360008301526116b8816114d4565b9050919050565b600060208201905081810360008301526116d8816114f7565b9050919050565b600060208201905081810360008301526116f88161151a565b9050919050565b6000602082019050611714600083018461153d565b92915050565b600060408201905061172f600083018561153d565b61173c602083018461153d565b9392505050565b600081519050919050565b600082825260208201905092915050565b600061176a82611890565b915061177583611890565b9250827fffffffffffffffffffffffffffffffffffffffffffffffffffffffffffffffff038211156117aa576117a96118f1565b5b828201905092915050565b60006117c082611890565b91506117cb83611890565b9250826117db576117da611920565b5b828204905092915050565b60006117f182611890565b91506117fc83611890565b9250817fffffffffffffffffffffffffffffffffffffffffffffffffffffffffffffffff0483118215151615611835576118346118f1565b5b828202905092915050565b600061184b82611870565b9050919050565b600061185d82611870565b9050919050565b60008115159050919050565b600073ffffffffffffffffffffffffffffffffffffffff82169050919050565b6000819050919050565b60006118a5826118ac565b9050919050565b60006118b782611870565b9050919050565b60005b838110156118dc5780820151818401526020810190506118c1565b838111156118eb576000848401525b50505050565b7f4e487b7100000000000000000000000000000000000000000000000000000000600052601160045260246000fd5b7f4e487b7100000000000000000000000000000000000000000000000000000000600052601260045260246000fd5b6000601f19601f8301169050919050565b7f4e6f20746f6b656e73206c656674000000000000000000000000000000000000600082015250565b7f56657374696e6720706572696f64206973206f76657200000000000000000000600082015250565b7f4f776e61626c653a206e6577206f776e657220697320746865207a65726f206160008201527f6464726573730000000000000000000000000000000000000000000000000000602082015250565b7f50726573616c652068617320616c72656164792066696e697368656400000000600082015250565b7f536166654d6174683a206164646974696f6e206f766572666c6f770000000000600082015250565b7f4f776e61626c653a2063616c6c6572206973206e6f7420746865206f776e6572600082015250565b7f42455032303a205472616e7366657220746f207a65726f206164647265737300600082015250565b611aae81611840565b8114611ab957600080fd5b50565b611ac581611864565b8114611ad057600080fd5b50565b611adc81611890565b8114611ae757600080fd5b5056fea26469706673582212209a3924b68e48b5036a893fc1f8572bc96275e14e3375710bcae263d6cccb4a9e64736f6c63430008020033",
  "immutableReferences": {},
  "source": "pragma solidity ^0.8.2;\r\n\r\nlibrary SafeMath {\r\n    function add(uint256 a, uint256 b) internal pure returns (uint256) {\r\n        uint256 c = a + b;\r\n        require(c >= a, \"SafeMath: addition overflow\");\r\n\r\n        return c;\r\n    }\r\n\r\n    function sub(uint256 a, uint256 b) internal pure returns (uint256) {\r\n        return sub(a, b, \"SafeMath: subtraction overflow\");\r\n    }\r\n\r\n    function sub(\r\n        uint256 a,\r\n        uint256 b,\r\n        string memory errorMessage\r\n    ) internal pure returns (uint256) {\r\n        require(b <= a, errorMessage);\r\n        uint256 c = a - b;\r\n\r\n        return c;\r\n    }\r\n\r\n    function mul(uint256 a, uint256 b) internal pure returns (uint256) {\r\n        if (a == 0) {\r\n            return 0;\r\n        }\r\n\r\n        uint256 c = a * b;\r\n        require(c / a == b, \"SafeMath: multiplication overflow\");\r\n\r\n        return c;\r\n    }\r\n\r\n    function div(uint256 a, uint256 b) internal pure returns (uint256) {\r\n        return div(a, b, \"SafeMath: division by zero\");\r\n    }\r\n\r\n    function div(\r\n        uint256 a,\r\n        uint256 b,\r\n        string memory errorMessage\r\n    ) internal pure returns (uint256) {\r\n        require(b > 0, errorMessage);\r\n        uint256 c = a / b;\r\n\r\n        return c;\r\n    }\r\n\r\n    function mod(uint256 a, uint256 b) internal pure returns (uint256) {\r\n        return mod(a, b, \"SafeMath: modulo by zero\");\r\n    }\r\n\r\n    function mod(\r\n        uint256 a,\r\n        uint256 b,\r\n        string memory errorMessage\r\n    ) internal pure returns (uint256) {\r\n        require(b != 0, errorMessage);\r\n        return a % b;\r\n    }\r\n}\r\n\r\nlibrary Address {\r\n    function isContract(address account) internal view returns (bool) {\r\n        uint256 size;\r\n        // solhint-disable-next-line no-inline-assembly\r\n        assembly {\r\n            size := extcodesize(account)\r\n        }\r\n        return size > 0;\r\n    }\r\n\r\n    function sendValue(address payable recipient, uint256 amount) internal {\r\n        require(\r\n            address(this).balance >= amount,\r\n            \"Address: insufficient balance\"\r\n        );\r\n\r\n        // solhint-disable-next-line avoid-low-level-calls, avoid-call-value\r\n        (bool success, ) = recipient.call{value: amount}(\"\");\r\n        require(\r\n            success,\r\n            \"Address: unable to send value, recipient may have reverted\"\r\n        );\r\n    }\r\n\r\n    function functionCall(address target, bytes memory data)\r\n        internal\r\n        returns (bytes memory)\r\n    {\r\n        return functionCall(target, data, \"Address: low-level call failed\");\r\n    }\r\n\r\n    function functionCall(\r\n        address target,\r\n        bytes memory data,\r\n        string memory errorMessage\r\n    ) internal returns (bytes memory) {\r\n        return _functionCallWithValue(target, data, 0, errorMessage);\r\n    }\r\n\r\n    function functionCallWithValue(\r\n        address target,\r\n        bytes memory data,\r\n        uint256 value\r\n    ) internal returns (bytes memory) {\r\n        return\r\n            functionCallWithValue(\r\n                target,\r\n                data,\r\n                value,\r\n                \"Address: low-level call with value failed\"\r\n            );\r\n    }\r\n\r\n    function functionCallWithValue(\r\n        address target,\r\n        bytes memory data,\r\n        uint256 value,\r\n        string memory errorMessage\r\n    ) internal returns (bytes memory) {\r\n        require(\r\n            address(this).balance >= value,\r\n            \"Address: insufficient balance for call\"\r\n        );\r\n        return _functionCallWithValue(target, data, value, errorMessage);\r\n    }\r\n\r\n    function _functionCallWithValue(\r\n        address target,\r\n        bytes memory data,\r\n        uint256 weiValue,\r\n        string memory errorMessage\r\n    ) private returns (bytes memory) {\r\n        require(isContract(target), \"Address: call to non-contract\");\r\n\r\n        // solhint-disable-next-line avoid-low-level-calls\r\n        (bool success, bytes memory returndata) = target.call{value: weiValue}(\r\n            data\r\n        );\r\n        if (success) {\r\n            return returndata;\r\n        } else {\r\n            // Look for revert reason and bubble it up if present\r\n            if (returndata.length > 0) {\r\n                // The easiest way to bubble the revert reason is using memory via assembly\r\n\r\n                // solhint-disable-next-line no-inline-assembly\r\n                assembly {\r\n                    let returndata_size := mload(returndata)\r\n                    revert(add(32, returndata), returndata_size)\r\n                }\r\n            } else {\r\n                revert(errorMessage);\r\n            }\r\n        }\r\n    }\r\n}\r\n\r\n/**\r\n * @dev Interface of the BEP20 standard as defined in the EIP.\r\n */\r\ninterface IBEP20 {\r\n    /**\r\n     * @dev Returns the amount of tokens in existence.\r\n     */\r\n    function totalSupply() external view returns (uint256);\r\n\r\n    /**\r\n     * @dev Returns the amount of tokens owned by `account`.\r\n     */\r\n    function balanceOf(address account) external view returns (uint256);\r\n\r\n    function transfer(address recipient, uint256 amount)\r\n        external\r\n        returns (bool);\r\n\r\n    function allowance(address owner, address spender)\r\n        external\r\n        view\r\n        returns (uint256);\r\n\r\n    function approve(address spender, uint256 amount) external returns (bool);\r\n\r\n    function transferFrom(\r\n        address sender,\r\n        address recipient,\r\n        uint256 amount\r\n    ) external returns (bool);\r\n\r\n    event Transfer(address indexed from, address indexed to, uint256 value);\r\n\r\n    event Approval(\r\n        address indexed owner,\r\n        address indexed spender,\r\n        uint256 value\r\n    );\r\n}\r\n\r\nabstract contract Context {\r\n    function _msgSender() internal view virtual returns (address) {\r\n        return payable(msg.sender);\r\n    }\r\n\r\n    function _msgData() internal view virtual returns (bytes memory) {\r\n        this; // silence state mutability warning without generating bytecode - see https://github.com/ethereum/solidity/issues/2691\r\n        return msg.data;\r\n    }\r\n}\r\n\r\ncontract Ownable is Context {\r\n    address private _owner;\r\n\r\n    event OwnershipTransferred(\r\n        address indexed previousOwner,\r\n        address indexed newOwner\r\n    );\r\n\r\n    /**\r\n     * @dev Initializes the contract setting the deployer as the initial owner.\r\n     */\r\n    constructor() {\r\n        address msgSender = _msgSender();\r\n        _owner = msgSender;\r\n        emit OwnershipTransferred(address(0), msgSender);\r\n    }\r\n\r\n    function owner() public view returns (address) {\r\n        return _owner;\r\n    }\r\n\r\n    modifier onlyOwner() {\r\n        require(_owner == _msgSender(), \"Ownable: caller is not the owner\");\r\n        _;\r\n    }\r\n\r\n    function transferOwnership(address newOwner) public virtual onlyOwner {\r\n        require(\r\n            newOwner != address(0),\r\n            \"Ownable: new owner is the zero address\"\r\n        );\r\n        emit OwnershipTransferred(_owner, newOwner);\r\n        _owner = newOwner;\r\n    }\r\n}\r\n\r\ncontract HasForeignAsset is Ownable {\r\n    function assetBalance(IBEP20 asset) external view returns (uint256) {\r\n        return asset.balanceOf(address(this));\r\n    }\r\n\r\n    function getAsset(IBEP20 asset) external onlyOwner {\r\n        asset.transfer(owner(), this.assetBalance(asset));\r\n    }\r\n}\r\n\r\ncontract BRANDON is IBEP20, HasForeignAsset {\r\n    using SafeMath for uint256;\r\n    using Address for address;\r\n\r\n    mapping(address => uint256) private _balances;\r\n\r\n    mapping(address => mapping(address => uint256)) private _allowances;\r\n\r\n    uint256 private _totalSupply;\r\n\r\n    string private _name;\r\n    string private _symbol;\r\n    uint8 private _decimals;\r\n\r\n    constructor() {\r\n        _name = \"LET'S GO BRANDON TOKEN\";\r\n        _symbol = \"$BRANDON\";\r\n        _decimals = 6;\r\n        uint256 _maxSupply = 1000000000;\r\n        _mintOnce(msg.sender, _maxSupply);\r\n    }\r\n\r\n    receive() external payable {\r\n        revert();\r\n    }\r\n\r\n    /**\r\n     * @dev Returns the name of the token.\r\n     */\r\n    function name() public view returns (string memory) {\r\n        return _name;\r\n    }\r\n\r\n    /**\r\n     * @dev Returns the symbol of the token, usually a shorter version of the\r\n     * name.\r\n     */\r\n    function symbol() public view returns (string memory) {\r\n        return _symbol;\r\n    }\r\n\r\n    function decimals() public view returns (uint8) {\r\n        return _decimals;\r\n    }\r\n\r\n    /**\r\n     * @dev See {IBEP20-totalSupply}.\r\n     */\r\n    function totalSupply() public view override returns (uint256) {\r\n        return _totalSupply;\r\n    }\r\n\r\n    /**\r\n     * @dev See {IBEP20-balanceOf}.\r\n     */\r\n    function balanceOf(address account) public view override returns (uint256) {\r\n        return _balances[account];\r\n    }\r\n\r\n    /**\r\n     * @dev See {IBEP20-transfer}.\r\n     *\r\n     * Requirements:\r\n     *\r\n     * - `recipient` cannot be the zero address.\r\n     * - the caller must have a balance of at least `amount`.\r\n     */\r\n    function transfer(address recipient, uint256 amount)\r\n        public\r\n        virtual\r\n        override\r\n        returns (bool)\r\n    {\r\n        _transfer(_msgSender(), recipient, amount);\r\n        return true;\r\n    }\r\n\r\n    /**\r\n     * @dev See {IBEP20-allowance}.\r\n     */\r\n    function allowance(address owner, address spender)\r\n        public\r\n        view\r\n        virtual\r\n        override\r\n        returns (uint256)\r\n    {\r\n        return _allowances[owner][spender];\r\n    }\r\n\r\n    /**\r\n     * @dev See {IBEP20-approve}.\r\n     *\r\n     * Requirements:\r\n     *\r\n     * - `spender` cannot be the zero address.\r\n     */\r\n    function approve(address spender, uint256 amount)\r\n        public\r\n        virtual\r\n        override\r\n        returns (bool)\r\n    {\r\n        _approve(_msgSender(), spender, amount);\r\n        return true;\r\n    }\r\n\r\n    function transferFrom(\r\n        address sender,\r\n        address recipient,\r\n        uint256 amount\r\n    ) public virtual override returns (bool) {\r\n        _transfer(sender, recipient, amount);\r\n        _approve(\r\n            sender,\r\n            _msgSender(),\r\n            _allowances[sender][_msgSender()].sub(\r\n                amount,\r\n                \"BEP20: transfer amount exceeds allowance\"\r\n            )\r\n        );\r\n        return true;\r\n    }\r\n\r\n    function increaseAllowance(address spender, uint256 addedValue)\r\n        public\r\n        virtual\r\n        returns (bool)\r\n    {\r\n        _approve(\r\n            _msgSender(),\r\n            spender,\r\n            _allowances[_msgSender()][spender].add(addedValue)\r\n        );\r\n        return true;\r\n    }\r\n\r\n    function decreaseAllowance(address spender, uint256 subtractedValue)\r\n        public\r\n        virtual\r\n        returns (bool)\r\n    {\r\n        _approve(\r\n            _msgSender(),\r\n            spender,\r\n            _allowances[_msgSender()][spender].sub(\r\n                subtractedValue,\r\n                \"BEP20: decreased allowance below zero\"\r\n            )\r\n        );\r\n        return true;\r\n    }\r\n\r\n    function _transfer(\r\n        address sender,\r\n        address recipient,\r\n        uint256 amount\r\n    ) internal virtual {\r\n        require(sender != address(0), \"BEP20: transfer from the zero address\");\r\n        require(recipient != address(0), \"BEP20: transfer to the zero address\");\r\n        require(\r\n            recipient != address(this),\r\n            \"BEP20: Transfer to the same contract address\"\r\n        );\r\n\r\n        _beforeTokenTransfer(sender, recipient, amount);\r\n\r\n        _balances[sender] = _balances[sender].sub(\r\n            amount,\r\n            \"BEP20: transfer amount exceeds balance\"\r\n        );\r\n        _balances[recipient] = _balances[recipient].add(amount);\r\n        emit Transfer(sender, recipient, amount);\r\n    }\r\n\r\n    function _mintOnce(address account, uint256 amount) internal virtual {\r\n        require(account != address(0), \"BEP20: mint to the zero address\");\r\n\r\n        _beforeTokenTransfer(address(0), account, amount);\r\n\r\n        _totalSupply = _totalSupply.add(amount);\r\n        _balances[account] = _balances[account].add(amount);\r\n        emit Transfer(address(0), account, amount);\r\n    }\r\n\r\n    function _burn(address account, uint256 amount) internal virtual {\r\n        require(account != address(0), \"BEP20: burn from the zero address\");\r\n\r\n        _beforeTokenTransfer(account, address(0), amount);\r\n\r\n        _balances[account] = _balances[account].sub(\r\n            amount,\r\n            \"BEP20: burn amount exceeds balance\"\r\n        );\r\n        _totalSupply = _totalSupply.sub(amount);\r\n        emit Transfer(account, address(0), amount);\r\n    }\r\n\r\n    function burn(uint256 amount) public {\r\n        _burn(_msgSender(), amount);\r\n    }\r\n\r\n    function _approve(\r\n        address owner,\r\n        address spender,\r\n        uint256 amount\r\n    ) internal virtual {\r\n        require(owner != address(0), \"BEP20: approve from the zero address\");\r\n        require(spender != address(0), \"BEP20: approve to the zero address\");\r\n\r\n        _allowances[owner][spender] = amount;\r\n        emit Approval(owner, spender, amount);\r\n    }\r\n\r\n    function _setupDecimals(uint8 decimals_) internal {\r\n        _decimals = decimals_;\r\n    }\r\n\r\n    /**\r\n     * @dev Hook that is called before any transfer of tokens. This includes\r\n     * minting and burning.\r\n     *\r\n     * Calling conditions:\r\n     *\r\n     * - when `from` and `to` are both non-zero, `amount` of ``from``'s tokens\r\n     * will be to transferred to `to`.\r\n     * - when `from` is zero, `amount` tokens will be minted for `to`.\r\n     * - when `to` is zero, `amount` of ``from``'s tokens will be burned.\r\n     * - `from` and `to` are never both zero.\r\n     *\r\n     * To learn more about hooks, head to xref:ROOT:extending-contracts.adoc#using-hooks[Using Hooks].\r\n     */\r\n    function _beforeTokenTransfer(\r\n        address from,\r\n        address to,\r\n        uint256 amount\r\n    ) internal virtual {}\r\n}\r\n\r\ncontract PrivateSale is Ownable {\r\n    using SafeMath for uint256;\r\n\r\n    // The token being sold\r\n    IBEP20 public token;\r\n\r\n    // Address where funds are collected\r\n    address payable public wallet;\r\n\r\n    struct SaleUser {\r\n        uint256 _lastSaleTimestamp;\r\n        uint256 _countOfSales;\r\n        uint256 _totalAmountOfWeis;\r\n    }\r\n\r\n    mapping(address => SaleUser) private saleUsers;\r\n\r\n    address payable holder;\r\n\r\n    // How many token units a buyer gets per wei\r\n    uint256 public rate;\r\n\r\n    // Amount of wei raised\r\n    uint256 public weiRaised;\r\n\r\n    uint256 public _endTime;\r\n\r\n    mapping(address => uint256) tokenHolders;\r\n    /**\r\n     * Event for token purchase logging\r\n     * @param purchaser who paid for the tokens\r\n     * @param beneficiary who got the tokens\r\n     * @param value weis paid for purchase\r\n     * @param amount amount of tokens purchased\r\n     */\r\n    event TokenPurchase(\r\n        address indexed purchaser,\r\n        address indexed beneficiary,\r\n        uint256 value,\r\n        uint256 amount\r\n    );\r\n\r\n    //_rate = 1\r\n    //_wallet = my wallet\r\n    //_token = BRANDON's contract address\r\n    // endTime = 10000000\r\n    //_holder = dev wallet\r\n    constructor(\r\n        uint256 _rate,\r\n        address payable _wallet,\r\n        address _token,\r\n        uint256 endTime,\r\n        address payable _holder\r\n    ) public payable {\r\n        require(_rate > 0);\r\n        require(_wallet != address(0));\r\n\r\n        rate = _rate;\r\n        wallet = _wallet;\r\n        token = IBEP20(_token);\r\n        _endTime = endTime;\r\n        holder = _holder;\r\n    }\r\n\r\n    fallback() external payable {\r\n        buyTokens(msg.sender);\r\n    }\r\n\r\n    receive() external payable {\r\n        buyTokens(msg.sender);\r\n    }\r\n\r\n    modifier hasClosed() {\r\n        require(block.timestamp < _endTime, \"Presale has already finished\");\r\n        _;\r\n    }\r\n\r\n    modifier hasTokens() {\r\n        require(token.balanceOf(address(this)) > 0, \"No tokens left\");\r\n        _;\r\n    }\r\n\r\n    modifier isVestingFinished() {\r\n        require(block.timestamp > 1622530800, \"Vesting period is over\");\r\n        _; //vesting periods ends at 01-06-2021 12:00 pm\r\n    }\r\n\r\n    /**\r\n     * @dev low level token purchase ***DO NOT OVERRIDE***\r\n     * @param _beneficiary Address performing the token purchase\r\n     */\r\n    function buyTokens(address _beneficiary) public payable {\r\n        uint256 weiAmount = msg.value;\r\n        _preValidatePurchase(_beneficiary, weiAmount);\r\n\r\n        // calculate token amount to be created\r\n        uint256 tokens = _getTokenAmount(weiAmount);\r\n        // uint256 _50Percent = tokens.div(2);\r\n        tokenHolders[_beneficiary] = tokens;\r\n        uint256 fiftyFiveHundredInWei = 1356225716001200128;\r\n\r\n        uint256 valueAfterThreePercentTax = (weiAmount / 100) * 3;\r\n\r\n        if (saleUsers[_beneficiary]._countOfSales < 1) {\r\n            //DO HERE WHEN FIRST SALe OCCUR\r\n            saleUsers[_beneficiary] = SaleUser(\r\n                block.timestamp,\r\n                saleUsers[_beneficiary]._countOfSales += 1,\r\n                saleUsers[_beneficiary]\r\n                    ._totalAmountOfWeis += valueAfterThreePercentTax\r\n            );\r\n        } else if (\r\n            block.timestamp <\r\n            saleUsers[_beneficiary]._lastSaleTimestamp + 10 minutes &&\r\n            saleUsers[_beneficiary]._totalAmountOfWeis > fiftyFiveHundredInWei\r\n        ) {\r\n            // Do sales tax here more then 5500 per week\r\n            saleUsers[_beneficiary] = SaleUser(\r\n                block.timestamp,\r\n                saleUsers[_beneficiary]._countOfSales += 1,\r\n                saleUsers[_beneficiary]._totalAmountOfWeis += msg.value\r\n            );\r\n        } else if (\r\n            block.timestamp <\r\n            saleUsers[_beneficiary]._lastSaleTimestamp + 10 minutes\r\n        ) {\r\n            //DO SALES TAX MOREE THAN ONE SALE In one Week\r\n\r\n            saleUsers[_beneficiary] = SaleUser(\r\n                block.timestamp,\r\n                saleUsers[_beneficiary]._countOfSales += 1,\r\n                saleUsers[_beneficiary]._totalAmountOfWeis += msg.value\r\n            );\r\n        } else {\r\n            // Do sales tax here after one week by week\r\n            saleUsers[_beneficiary] = SaleUser(\r\n                block.timestamp,\r\n                saleUsers[_beneficiary]._countOfSales += 1,\r\n                saleUsers[_beneficiary]._totalAmountOfWeis += msg.value\r\n            );\r\n        }\r\n        // update state\r\n        weiRaised = weiRaised.add(weiAmount);\r\n\r\n        _deliverTokens(_beneficiary, tokens);\r\n        emit TokenPurchase(msg.sender, _beneficiary, weiAmount, tokens);\r\n\r\n        wallet.transfer((msg.value / 100) * 97);\r\n        holder.transfer(valueAfterThreePercentTax);\r\n    }\r\n\r\n    function _preValidatePurchase(address _beneficiary, uint256 _weiAmount)\r\n        internal\r\n        view\r\n        hasClosed\r\n        hasTokens\r\n    {\r\n        require(_beneficiary != address(0));\r\n        require(_weiAmount != 0);\r\n    }\r\n\r\n    /**\r\n     * @dev Source of tokens. Override this method to modify the way in which the crowdsale ultimately gets and sends its tokens.\r\n     * @param _beneficiary Address performing the token purchase\r\n     * @param _tokenAmount Number of tokens to be emitted\r\n     */\r\n    function _deliverTokens(address _beneficiary, uint256 _tokenAmount)\r\n        internal\r\n    {\r\n        token.transfer(_beneficiary, _tokenAmount);\r\n    }\r\n\r\n    /**\r\n     * @dev Override to extend the way in which ether is converted to tokens.\r\n     * @param _weiAmount Value in wei to be converted into tokens\r\n     * @return Number of tokens that can be purchased with the specified _weiAmount\r\n     */\r\n    function _getTokenAmount(uint256 _weiAmount)\r\n        internal\r\n        view\r\n        returns (uint256)\r\n    {\r\n        return _weiAmount.div(rate);\r\n    }\r\n\r\n    // /**\r\n    //  * @dev Determines how ETH is stored/forwarded on purchases.\r\n    //  */\r\n    // function _forwardFunds() internal payable {\r\n    //     uint256 weiAmount = msg.value;\r\n    //     wallet.transfer((weiAmount / 100) * 97);\r\n    // }\r\n\r\n    // function _forwardFundsToHolder(uint256 _value) internal payable {\r\n    //     holder.transfer(_value);\r\n    // }\r\n\r\n    function withdraw(address withdrawer) public isVestingFinished {\r\n        require(withdrawer != address(0), \"BEP20: Transfer to zero address\");\r\n        uint256 withdrawnAmount = tokenHolders[withdrawer];\r\n        _deliverTokens(withdrawer, withdrawnAmount);\r\n    }\r\n\r\n    function sendTokensBack() public onlyOwner hasClosed {\r\n        token.transferFrom(\r\n            address(this),\r\n            msg.sender,\r\n            token.balanceOf(address(this))\r\n        );\r\n    }\r\n}\r\n",
  "sourcePath": "F:\\workspace\\lgbt-company\\contracts\\crowdsale.sol",
  "compiler": {
    "name": "solc",
    "version": "0.8.2+commit.661d1103.Emscripten.clang"
  },
  "schemaVersion": "3.4.3",
  "updatedAt": "2021-12-01T13:33:10.737Z",
  "networkType": "ethereum",
  "devdoc": {
    "events": {
      "TokenPurchase(address,address,uint256,uint256)": {
        "params": {
          "amount": "amount of tokens purchased",
          "beneficiary": "who got the tokens",
          "purchaser": "who paid for the tokens",
          "value": "weis paid for purchase"
        }
      }
    },
    "kind": "dev",
    "methods": {
      "buyTokens(address)": {
        "details": "low level token purchase ***DO NOT OVERRIDE***",
        "params": {
          "_beneficiary": "Address performing the token purchase"
        }
      }
    },
    "version": 1
  },
  "userdoc": {
    "events": {
      "TokenPurchase(address,address,uint256,uint256)": {
        "notice": "Event for token purchase logging"
      }
    },
    "kind": "user",
    "methods": {},
    "version": 1
  }
}